:100000000C9429010C943D010C943D010C943D018C
:100010000C943D010C943D010C943D010C943D0168
:100020000C943D010C943D010C943D010C943D0158
:100030000C943D010C943D010C943D010C943D0148
:100040000C943D010C943D010C943D010C943D0138
:100050000C943D010C943D010C943D010C940A0359
:100060000C943D010C943D010C943D010C943D0118
:100070000C943D010C943D010C943D010C943D0108
:100080000C943D010C943D010C943D010C943D01F8
:100090000C943F010C943D010C943D010C943D01E6
:1000A0000C943D010C943D010C943D010C943D01D8
:1000B0000C943D010C943D010C943D010C943D01C8
:1000C0000C943D010C943D010C943D010C943D01B8
:1000D0000C943D010C943D010C943D010C943D01A8
:1000E0000C943D01BB02BE02AD02B102B502F502A5
:1000F000C202C602CC02D002D402DA02DE02E2025E
:10010000F502E802EC02F0020C94BB020C94F5023A
:100110000C94C2020C94DE020C94CC020C94C60225
:100120000C94D4020C94BE020C94F0020C94DA02EB
:100130000C94B5020C94E2020C94D0020C94EC02E4
:100140000C94B1020C94AD020C94E80200000A0B6E
:1001500002090C0D0E080703040100000000000056
:10016000000000000000000000000000000000008F
:10017000000000000000000012111000000000004C
:10018000000000000000000000000000000000006F
:10019000000000002200250028002B002E00310066
:1001A000340002010000050108010B0100002100DC
:1001B000240027002A002D00300033000101000038
:1001C000040107010A0105050505070508080808D7
:1001D000020202020A0A08080404040401010101DF
:1001E00001010101030303030303030304070707DA
:1001F0000C0C0C0C0C0C0C0C02020202060606067F
:10020000060606060B0B0B0B0B0B0B0B010210204B
:10021000200808102040102040800201020108043C
:1002200002010102040810204080804020100804D0
:100230000201800402018040201008040201080429
:10024000020101020408102040800102040810206D
:10025000408011241FBECFEFD1E2DEBFCDBF00E052
:100260000CBF22E0A0E0B2E001C01D92A931B207AC
:10027000E1F70E9454030C942D050C9400001F928A
:100280000F920FB60F9211240BB60F922F933F933C
:100290004F935F936F937F938F939F93AF93BF938E
:1002A000CF93DF93EF93FF93C091C800D091CE001E
:1002B00061E087E00E948C02C3FF08C010920F0229
:1002C00010920E028091C800877F0FC0C4FF10C03B
:1002D00010920D0210920C0281E090E090930F02B8
:1002E00080930E028091C8008F7E8093C800DFC08B
:1002F00080910E0290910F0282309105F9F08330C7
:10030000910579F1019709F0D2C0D11112C0809105
:10031000000290910102019719F483E090E002C07D
:1003200082E090E090930F0280930E0281E090E0D3
:1003300054C010920F0210920E02B9C080910002B8
:100340009091010220910C0230910D0201978217C9
:100350009307F1F583E090E090930F0280930E02F3
:1003600037C020910C0230910D02809100029091D3
:1003700001022817390739F48D2F90E090930B0272
:1003800080930A0225C08091000290910102209181
:100390000C0230910D0201968217930739F48D2FCC
:1003A00090E0909309028093080212C080910002AD
:1003B0009091010220910C0230910D020296821759
:1003C000930781F48D2F90E09093070280930602AB
:1003D00080910C0290910D02019690930D028093F2
:1003E0000C0265C0809100029091010220910C02E4
:1003F00030910D0203968217930709F058C08D2F94
:1004000090E0909305028093040281E090E0909345
:100410000D0280930C0210920F0210920E02809136
:100420000A0290910B02892B29F08AE00E946D024A
:1004300061E004C08AE00E946D0260E08AE00E94F0
:100440008C028091080290910902892B29F089E0A1
:100450000E946D0261E004C089E00E946D0260E0CC
:1004600089E00E948C028091060290910702892BFC
:1004700029F085E00E946D0261E004C085E00E94E1
:100480006D0260E085E00E948C02809104029091F0
:100490000502892B29F086E00E946D0261E004C00C
:1004A00086E00E946D0260E086E00E948C020000FF
:1004B000FF91EF91DF91CF91BF91AF919F918F917C
:1004C0007F916F915F914F913F912F910F900BBE54
:1004D0000F900FBE0F901F90189590E0FC01E45F05
:1004E000FD4F2491FC01EA53FE4F8491882399F03B
:1004F00090E0880F991FFC01E455FE4FA591B4913F
:10050000FC01EE56FE4F859194918FB7F894EC91D3
:10051000E22BEC938FBF0895362F90E0FC01E45B53
:10052000FE4F4491FC01E45FFD4F2491FC01EA532E
:10053000FE4F9491992309F46CC0442309F455C0EB
:1005400050E0FA013197E231F10508F04EC08827FA
:10055000EE58FF4F8F4F0C942505809180008F77C8
:1005600007C0809180008F7D03C080918000877FCD
:10057000809380003AC084B58F7702C084B58F7DA8
:1005800084BD33C08091B0008F7703C08091B000EC
:100590008F7D8093B00029C0809190008F7707C035
:1005A000809190008F7D03C080919000877F809321
:1005B00090001BC08091A0008F7707C08091A000A1
:1005C0008F7D03C08091A000877F8093A0000DC025
:1005D000809120018F7707C0809120018F7D03C01B
:1005E00080912001877F80932001E92FF0E0EE0FBA
:1005F000FF1FEE56FE4FA591B4919FB7F8943111AD
:1006000004C08C912095282302C0EC912E2B2C93B2
:100610009FBF08951F920F920FB60F9211242F9330
:100620003F938F939F93AF93BF93809111029091CB
:100630001202A0911302B09114023091100223E033
:10064000230F2D3720F40196A11DB11D05C026E80A
:10065000230F0296A11DB11D209310028093110259
:1006600090931202A0931302B0931402809115028A
:1006700090911602A0911702B09118020196A11D47
:10068000B11D8093150290931602A0931702B093A8
:100690001802BF91AF919F918F913F912F910F9031
:1006A0000FBE0F901F901895CF93DF93CDB7DEB795
:1006B00062970FB6F894DEBF0FBECDBF789484B5B5
:1006C000826084BD84B5816084BD85B5826085BD4E
:1006D00085B5816085BD80916E00816080936E00DC
:1006E00010928100809181008260809381008091CE
:1006F000810081608093810080918000816080937F
:1007000080008091B10084608093B1008091B0003E
:1007100081608093B000809191008260809391000D
:100720008091910081608093910080919000816020
:10073000809390008091A10082608093A1008091BD
:10074000A10081608093A1008091A00081608093CE
:10075000A00080912101826080932101809121017C
:10076000816080932101809120018160809320012C
:1007700080917A00846080937A0080917A00826010
:1007800080937A0080917A00816080937A008091D2
:100790007A00806880937A001092C10082E00E9403
:1007A0006D0287E00E946D0283E00E946D0260E0AE
:1007B00083E00E948C0283E08093CC001092CD00F5
:1007C0001092CE001092C80080E98093C9008EE09C
:1007D0008093CA00F89481E090E09A8B898B188A04
:1007E0001F861E861D861C861B861A8619861886FD
:1007F0001F821E821D821C821B821A82198289819D
:100800009A81CB80DC80ED80FE800F811885A985E0
:10081000BA85EB85FC854D855E852F85388969898C
:100820007A89880F991F8C0D9D1D880F991F8E0D39
:100830009F1D880F991F800F911F880F991F8A0F86
:100840009B1F880F991F8E0F9F1F880F991F840F62
:10085000951F880F991F820F931F880F991F860F6E
:10086000971F909301028093000280910002909163
:100870000102892B09F079C08AE00E946D0261E0D3
:100880008AE00E948C0289E00E946D0260E089E0AB
:100890000E948C0285E00E946D0260E085E00E946B
:1008A0008C0286E00E946D0260E086E00E948C026D
:1008B0000E94ED048AE00E946D0260E08AE00E94DE
:1008C0008C0289E00E946D0261E089E00E948C0246
:1008D00085E00E946D0260E085E00E948C0286E067
:1008E0000E946D0260E086E00E948C020E94ED048E
:1008F0008AE00E946D0260E08AE00E948C0289E03A
:100900000E946D0260E089E00E948C0285E00E94F6
:100910006D0261E085E00E948C0286E00E946D021B
:1009200060E086E00E948C020E94ED048AE00E9452
:100930006D0260E08AE00E948C0289E00E946D02F4
:1009400060E089E00E948C0285E00E946D0260E018
:1009500085E00E948C0286E00E946D0261E086E0E4
:100960000E948C020E94ED0487CF8091000290913A
:1009700001028D3F914030F08DEF91E090930102A4
:100980008093000260E082E00E948C027894FFCFA6
:100990003FB7F8948091150290911602A09117022A
:1009A000B091180226B5A89B05C02F3F19F00196FB
:1009B000A11DB11D3FBFBA2FA92F982F8827820FE5
:1009C000911DA11DB11DBC01CD0142E0660F771F35
:1009D000881F991F4A95D1F708958F929F92AF92E1
:1009E000BF92CF92DF92EF92FF920E94C8044B0118
:1009F0005C0188EEC82E83E0D82EE12CF12C0E94F9
:100A0000C804DC01CB0188199909AA09BB09883EF1
:100A10009340A105B10598F321E0C21AD108E1087D
:100A2000F10888EE880E83E0981EA11CB11CC11449
:100A3000D104E104F10419F7FF90EF90DF90CF901B
:100A4000BF90AF909F908F900895EE0FFF1F881F6B
:0E0A50008BBF0790F691E02D1994F894FFCF1C
:00000001FF
